:020000040800F2
:10000000804B002065020008CD040008370400087A
:10001000C9040008170300083906000800000000A2
:10002000000000000000000000000000CD010008FA
:100030001B0300080000000011020008350D000835
:100040007F0200087F0200087F0200087F0200088C
:100050007F0200087F0200087F0200087F0200087C
:100060007F0200087F0200087F0200087F0200086C
:100070007F0200087F0200087F0200087F0200085C
:100080007F0200087F0200087F0200087F0200084C
:100090007F0200087F0200087F0200087F0200083C
:1000A0007F0200087F0200087F0200087F0200082C
:1000B0007F0200087F0200087F0200087F0200081C
:1000C0007F0200087F0200087F0200087F0200080C
:1000D0007F0200087F0200087F0200087F020008FC
:1000E0007F0200087F0200087F0200087F020008EC
:1000F0007F0200087F0200087F0200087F020008DC
:100100007F0200087F0200087F0200087F020008CB
:100110007F0200087F0200087F0200087F020008BB
:100120007F0200087F0200087F0200087F020008AB
:1001300000F002F800F03AF80AA090E8000C8244BF
:100140008344AAF10107DA4501D100F02FF8AFF29C
:10015000090EBAE80F0013F0010F18BFFB1A43F0A5
:1001600001031847740E0000940E0000103A24BFDB
:1001700078C878C1FAD8520724BF30C830C144BF0C
:1001800004680C607047000000230024002500264E
:10019000103A28BF78C1FBD8520728BF30C148BFEA
:1001A0000B6070471FB51FBD10B510BD00F07DF886
:1001B0001146FFF7F7FF00F041FA00F09BF803B497
:1001C000FFF7F2FF03BC00F09FF80000224B196814
:1001D0000868B0E8F00F80F30988BFF36F8F4FF025
:1001E000000080F311884EF00D0E704700000000F3
:1001F00006480068006880F3088862B661B6BFF3FD
:100200004F8FBFF36F8F00DF00BF00BF08ED00E02E
:10021000EFF30980BFF36F8F0F4B1A6820E9F00FDF
:10022000106008B54FF0BF0080F31188BFF34F8F07
:10023000BFF36F8F00F034FD4FF0000080F31188A2
:10024000BDE8084019680868B0E8F00F80F3098835
:10025000BFF36F8F704700BF00000020EFF30580F1
:10026000704700000948804709480047FEE7FEE75D
:10027000FEE7FEE7FEE7FEE7FEE7FEE7FEE7FEE756
:1002800004480549054A064B70470000D905000897
:100290003101000880450020804B0020804700206D
:1002A00080470020704770477047754600F028F877
:1002B000AE4605006946534620F00700854618B053
:1002C00020B5FFF7DDFFBDE820404FF000064FF0FE
:1002D00000074FF000084FF0000B21F00701AC467B
:1002E000ACE8C009ACE8C009ACE8C009ACE8C0099A
:1002F0008D4670470446AFF300802046FFF75FFF4E
:10030000004870472045002001491820ABBEFEE799
:1003100026000200704700BFFEE770472DE9F0415C
:10032000024600250026002000230024002791F823
:1003300003C00CF00F0591F803C00CF0100CBCF1D9
:10034000000F03D091F802C04CEA050591F800C0F7
:10035000BCF1000F31D0146800202BE04FF0010CED
:100360000CFA00F3B1F800C00CEA03069E4220D15B
:1003700083004FF00F0C0CFA03F7BC4305FA03FCA3
:100380004CEA040491F803C0BCF1280F06D14FF0E9
:10039000010C0CFA00FCC2F814C00AE091F803C08A
:1003A000BCF1480F05D14FF0010C0CFA00FCC2F86B
:1003B00010C0401C0828D1D31460B1F800C0BCF1B3
:1003C000FF0F34DD546800202EE000F1080C4FF0E0
:1003D000010808FA0CF3B1F800C00CEA03069E42CB
:1003E00021D183004FF00F0C0CFA03F7BC4305FA40
:1003F00003FC4CEA040491F803C0BCF1280F05D1BA
:1004000000F1080C08FA0CF8C2F8148091F803C047
:10041000BCF1480F07D100F1080C4FF0010808FAB1
:100420000CF8C2F81080401C0828CED35460BDE8F8
:10043000F0810161704700BFFEE700000BE0064855
:10044000006808B9012000E00020034908604FF46B
:10045000487000F0D1FBF2E7948121420BE006489E
:10046000006808B9012000E00020034908604FF44B
:10047000FA7000F0C1FBF2E79401234208B50121B4
:10048000482000F025F82020ADF8000010208DF85D
:10049000030003208DF8020069460948FFF73EFF7C
:1004A00020210748FFF7C5FF2020ADF8000069466E
:1004B0000448FFF733FF20210248FFF7BAFF08BDC9
:1004C000000C01400018014000BFFEE7704700002B
:1004D00029B1064A92690243044B9A6104E0034A37
:1004E00092698243014B9A617047000000100240FC
:1004F00010B500F001F810BD0CB50020019000907F
:100500003348006840F480303149086000BF30480B
:10051000006800F4003000900198401C01900098A1
:1005200018B90198B0F5A06FF1D12948006800F41E
:10053000003010B10120009001E0002000900098F0
:10054000012843D12348006840F010002149086089
:100550000846006820F0030008600846006840F084
:10056000020008601A484068194948600846406817
:1005700048600846406840F480604860084640682B
:1005800020F47C1048600846406840F4E810486059
:100590000846006840F08070086000BF0C480068A2
:1005A00000F000700028F9D00948406820F00300EE
:1005B000074948600846406840F00200486000BFB4
:1005C0000348406800F00C000828F9D10CBD000079
:1005D000001002400020024010B51348006840F0AF
:1005E00001001149086008464068104908400E495A
:1005F0004860084600680E4908400B4908600846F4
:10060000006820F4802008600846406820F4FE005E
:1006100048604FF41F008860FFF76AFF4FF00060EA
:100620000449086010BD0000001002400000FFF8FF
:10063000FFFFF6FE08ED00E000BFFEE71CB5FFF788
:100640001DFF0020032103468022CDE9001009A1EF
:100650000A4800F089FB0020042103468022CDE9EE
:10066000001007A1084800F07FFB00F0DFFA00202F
:100670001CBD00004C454430000000003D04000853
:100680004C454431000000005D0400082DE9F041B4
:1006900005460E461C4807681C480068001D00F00F
:1006A00013FA50B91948006890F82C1001208840BE
:1006B00017490968814316480160681C38B936B18A
:1006C00012480168091D134800F03DFA1AE07C1930
:1006D0000E4800684460BC4207D20C480168091DFE
:1006E0000D48006800F015FA0CE008480168091D83
:1006F0000A48006800F00DFA09480068844201D2F7
:1007000007480460BDE8F0811400002000000020CC
:10071000180000200C010020080000200400002028
:100720003000002010B5044600F01AFA2348006893
:10073000401C224908602248006840B920480460F3
:100740000846006801280DD100F0F6F80AE01D48BF
:10075000006838B91A480068C06AE16A884201D85E
:100760001748046018480068401C1749086094F84E
:100770002C10012088401549096808431349086076
:10078000E16A01EB8101124A02EB8100211D00F0B8
:10079000DAF900F0F7F90B48006868B1084800681A
:1007A000C06AE16A884207D24FF080500949086068
:1007B000BFF34F8FBFF36F8F10BD000010000020FC
:1007C000000000201C0000202C0000201800002049
:1007D0005800002004ED00E070B523E000F058FA66
:1007E0001348006808B9012000E00020054600F029
:1007F0007FFBBDB900F0B4F90D48C068C468201D86
:1008000000F062F90B480068401E0A4908600A4877
:100810000068401E0849086000F0B4F9204600F066
:100820000DF800BF044800680028D7D170BD000053
:10083000F8000020100000200C00002010B5044635
:10084000206B00F0AFF9204600F0ACF910BD0000BD
:100850000A4A22F007000A4A10600022084B5A6038
:1008600044F2F832074B5A6000221A60014644F203
:10087000F8324A601A460A607047000028010020DA
:10088000400000204800002000BFFFF7A5FF0648F9
:1008900000680128F9D94FF0805004490860BFF37F
:1008A0004F8FBFF36F8FF0E75800002004ED00E09A
:1008B0002DE9FF5F80460F469146DDE90E6A109CE8
:1008C000A9F10100216B01EB800B2BF0070B002538
:1008D00007E0795D04F134004155785D00B902E02C
:1008E0006D1C102DF5D300BF002143200155052EAE
:1008F00000D30426E66266640020A064201D00F098
:1009000005F904F1180000F001F92461C6F10500B1
:10091000A06164620020E06484F8500041465846BB
:10092000039A00F0BFF82060BAF1000F01D0CAF8B6
:100930000040BDE8FF9F000010B5002407E004EB75
:1009400084010F4A02EB810000F0D3F8641C052CEF
:10095000F5D30C4800F0CDF80B4800F0CAF80B486E
:1009600000F0C7F80A4800F0C4F80A4800F0C1F8DF
:1009700004480949086004480849086010BD00009F
:1009800058000020BC000020D0000020E40000201F
:10099000F80000200C0100200400002008000020C6
:1009A0000A490968096809B9012100E0002121B15B
:1009B0004FF0FF31064A116006E004490968C96832
:1009C000C868034A416811607047000004000020B5
:1009D0003000002000BFBF2080F31188BFF34F8F8D
:1009E000BFF36F8F00BF00BFFEE700002DE9F041AD
:1009F00004464FF0000800F04BF92648006820B983
:100A0000FFF726FF01202349086044B1083404F0B1
:100A1000070020B104F00700C0F108000444002CD6
:100A200032D044F2F83084422ED21B4F384605684B
:100A300001E02F462D686868A04202D2286800288D
:100A4000F7D1164885421FD0386800F10808286899
:100A500038606868001B102810D92E196868001BC0
:100A600070606C6071680C4800E000680268526851
:100A70008A42FAD302683260066000BF084968689B
:100A80000968081A0649086000F032FA4046BDE8D5
:100A9000F0810000540000204000002048000020A9
:100AA00050000020001F4FF080730360001F21F0F2
:100AB00001030360001F034B0360143802602038F9
:100AC00070470000D509000801460A69D1E90130E4
:100AD0009860D1E9010358605068884201D1886864
:100AE0005060002008611068401E10601068704758
:100AF000704700F1080141604FF0FF31816000F163
:100B00000801C1600161002101607047002101619D
:100B1000704710B502460B685C1C0CB9106907E001
:100B200002F1080000E04068446824689C42FAD959
:100B300044684C604C68A160886041600A61146838
:100B4000641C146010BD42684A6093688B609368AF
:100B500059609160086103685B1C03607047000086
:100B600000BFBF2080F31188BFF34F8FBFF36F8F9B
:100B700000BF03480068401C01490860704700003E
:100B80003C00002006480068401E054908600846F1
:100B9000006820B9002080F3118800BF00BF7047B3
:100BA0003C00002070B506463546B6B1083D2C46DF
:100BB00000F06EF86168094800E000680268526859
:100BC0008A42FAD3026822600460054960680968B5
:100BD00008440349086000F08BF970BD4000002014
:100BE0005000002003484FF0E021486107200861D1
:100BF000704700003F19010070B50446002544B15C
:100C000000F046F800212046FFF740FD00F070F9A3
:100C100005463DB94FF0805003490860BFF34F8F40
:100C2000BFF36F8F70BD000004ED00E01CB51148EC
:100C300000210B468022CDE900100FA1104800F0E2
:100C400093F80446012C14D100BFBF2080F3118813
:100C5000BFF34F8FBFF36F8F00BF4FF0FF300949D5
:100C6000086001200849086000200849086000F079
:100C700047F81CBD3400002049444C4500000000EA
:100C800089080008300000201C000020140000200B
:100C900002480068401C0149086070473800002085
:100CA0001248006818B10120114908601DE00020B9
:100CB0000F4908600F480068B0FA80F0C0F11F01CA
:100CC00001EB81020C4B03EB8200426852684260E8
:100CD00000F108024368934202D1426852684260C0
:100CE0004268D268054B1A6000BF70473800002088
:100CF00024000020180000205800002000000020E0
:100D000010B50A48006840F47F00084908600846AA
:100D1000006840F07F400860FFF764FF002004494E
:100D20000860FFF765FA002010BD000020ED00E02C
:100D30003C00002010B500BFBF2080F31188BFF336
:100D40004F8FBFF36F8F00BF00F03EF818B14FF028
:100D500080500449086000BF002080F3118800BF64
:100D600010BD000004ED00E02DE9FF4F85B0804686
:100D700089461746DDE912ABB800FFF737FE064695
:100D800056B15420FFF732FE04460CB1266304E04E
:100D90003046FFF707FF00E000247CB10020CDE9DA
:100DA00000ABCDE902403A4649464046089BFFF772
:100DB0007FFD2046FFF7B6FC012501E04FF0FF352F
:100DC000284609B0BDE8F08F2DE9F04100273D48E5
:100DD0000068002868D13C480068451C3A48056016
:100DE0008DB93A48D0F80080394800683749086022
:100DF0003748C0F8008037480068401C3549086013
:100E0000FFF7CEFD00BF3448006885423BD300BFEA
:100E10002E480068006808B9012000E0002020B1D9
:100E20004FF0FF302C4908602CE028480068C0686B
:100E3000C4686668B54202D22748066022E0201DD9
:100E4000FFF742FEA06A18B104F11800FFF73CFE5C
:100E500094F82C10012088402049096808431F4954
:100E60000860E16A01EB81011D4A02EB8100211D4E
:100E7000FFF769FE1B49E06A0968C96A8842C7D35F
:100E80000127C5E700BF17480068C06A00EB800073
:100E9000134951F82000012800D9012712480068A1
:100EA00008B9FFF725FE06E00F480068401C0E4910
:100EB0000860FFF71DFE0D48006800B101273846A5
:100EC000BDE8F0813800002014000020040000205C
:100ED000080000202800002030000020180000201A
:100EE00058000020000000202000002024000020E6
:100EF00070B500240026FFF733FE2E480068401E20
:100F00002C4908600846006800284FD12A4800682C
:100F100000284BD024E02948C068C46804F11800B8
:100F2000FFF7D2FD201DFFF7CFFD94F82C10012014
:100F3000884023490968084321490860E16A01EBB8
:100F40008101204A02EB8100211DFFF7FCFD1E49B3
:100F5000E06A0968C96A884202D301201B49086017
:100F60001648006808B9012000E000200028D2D00F
:100F70000CB1FFF715FD1648056865B100BFFFF716
:100F800023FF10B10120114908606D1E002DF6D11C
:100F900000200F4908600D48006838B1012630076D
:100FA0000C490860BFF34F8FBFF36F8FFFF7EAFD67
:100FB000304670BD3800002010000020E400002002
:100FC000180000205800002000000020240000200D
:100FD0002000002004ED00E0F80F000800000020D1
:100FE000580000006C010008501000085800002054
:100FF000284B0000880100080000000000000000ED
:1010000000000000000000000000000000000000E0
:1010100000000000000000000000000000000000D0
:1010200000000000000000000000000000000000C0
:1010300000000000AAAAAAAA000000000000000008
:101040000000000000000000F84300000000000065
:0400000508000131BD
:00000001FF
